:100000000C9462000C948A000C948A000C948A0070
:100010000C948A000C948A000C948A000C948A0038
:100020000C948A000C948A000C948A000C94840628
:100030000C948A000C948A000C948A000C948A0018
:100040000C943A060C948A000C948A000C948A0052
:100050000C948A000C948A000C948A000C948A00F8
:100060000C9440070C948A00000000002400270034
:100070002A0000000000250028002B0000000000DE
:1000800023002600290004040404040404040202DA
:100090000202020203030303030301020408102007
:1000A0004080010204081020010204081020000012
:1000B0000008000201000003040700000000000027
:1000C00000005F0811241FBECFEFD8E0DEBFCDBF18
:1000D00011E0A0E0B1E0E6E6FBE102C005900D9280
:1000E000AA37B107D9F722E0AAE7B1E001C01D9213
:1000F000A438B207E1F710E0C2E6D0E004C02197CF
:10010000FE010E94C60AC136D107C9F70E94A7089E
:100110000C94B10D0C940000209174022C3080F4EA
:100120000297880F991F4FB7F89430E0F901EE0F4E
:10013000FF1FE20FF31FE15BFD4F928381834FBFEF
:100140000895833081F028F4813099F08230A9F04D
:1001500008958730A9F08830C9F08430B1F48091D7
:1001600080008F7D03C0809180008F778093800016
:10017000089584B58F7784BD089584B58F7DFBCFB6
:100180008091B0008F778093B00008958091B00087
:100190008F7DF9CFCF93DF93282F30E0F901E2551F
:1001A000FF4F8491F901E656FF4FD491F901EA57C8
:1001B000FF4FC491CC23A1F081110E94A100EC2F2C
:1001C000F0E0EE0FFF1FE458FF4FA591B491EC91C2
:1001D000ED2381E090E009F480E0DF91CF91089574
:1001E00080E090E0FACF1F93CF93DF93282F30E089
:1001F000F901E255FF4F8491F901E656FF4FD49182
:10020000F901EA57FF4FC491CC23A9F0162F8111B1
:100210000E94A100EC2FF0E0EE0FFF1FEE58FF4F01
:10022000A591B4918FB7F894EC91111108C0D095B5
:10023000DE23DC938FBFDF91CF911F910895DE2BDA
:10024000F8CFCF93DF9390E0FC01E656FF4F249167
:100250008A579F4FFC0184918823D1F090E0880F4A
:10026000991FFC01E859FF4FA591B491FC01EE588C
:10027000FF4FC591D491623071F49FB7F8943C91CF
:10028000822F809583238C93E8812E2B28839FBF18
:10029000DF91CF9108958FB7F894EC912E2B2C938A
:1002A0008FBFF6CF809174028C3008F051C061E0AE
:1002B00089E00E94210180917402282F30E0F90129
:1002C000EE0FFF1FE20FF31FE15BFD4F9081907C6B
:1002D0009960908310927502109276022CE0622F42
:1002E0000E94BA0A829FB001112430E020E0AB01E5
:1002F000420F531FFA01EE0FFF1FE40FF51FE15BE2
:10030000FD4F908196FD16C02F5F3F4F2C30310579
:1003100071F781110FC01092800082E080938100FC
:100320001092850010928400B19A80916F008260D3
:1003300080936F00E09174028E2F90E0FC01EE0F2D
:10034000FF1FE80FF91FE15BFD4F80818064808310
:100350008091740208953FB7F89480913F02909184
:100360004002A0914102B091420226B5A89B05C06F
:100370002F3F19F00196A11DB11D3FBFBA2FA92F24
:10038000982F8827BC01CD01620F711D811D911D21
:1003900042E0660F771F881F991F4A95D1F708958D
:1003A0008F929F92AF92BF92CF92DF92EF92FF9285
:1003B0006B017C010E94AB014B015C01C114D104B3
:1003C000E104F104B9F00E94AB01681979098A09C6
:1003D0009B09683E73408105910580F321E0C21AB4
:1003E000D108E108F10888EE880E83E0981EA11C70
:1003F000B11CE4CFFF90EF90DF90CF90BF90AF9013
:100400009F908F90089508950895AF92BF92CF92D4
:10041000DF92EF92FF920F931F93CF93DF936C01C4
:100420007B018B01040F151FEB015E01AE18BF08A5
:10043000C017D10759F06991D601ED91FC91019057
:10044000F081E02DC6010995892B79F7C501DF916F
:10045000CF911F910F91FF90EF90DF90CF90BF90C1
:10046000AF90089508952091BB01260F3327331FC5
:1004700021323105ECF420910402FC0190E080E08F
:10048000243069F082E00895A091BB012191AC0174
:1004900045565E4FA40FB52FB11D2C9301968617BC
:1004A00098F38091BB01680F6093BB0180E00895D1
:1004B00081E008951092040281E08093030210927B
:1004C000DE0161E082E10E94F30061E083E10E94CD
:1004D000F300E9EBF0E080818E7F808380818D7F67
:1004E000808388E48093B80085E48093BC000895FD
:1004F000CF93DF9391E090939A018823B9F0C09154
:10050000B800D091BA008091BC008A7B8093BC0077
:1005100060E082E10E94F30060E083E10E94F3006A
:100520000E945A02D093BA00C093B800DF91CF91D5
:1005300008950895E091340280913302E81730F471
:10054000F0E0E658FE4F808190E008958FEF9FEF36
:10055000089590913402809133022FEF3FEF981766
:1005600048F4E92FF0E0E658FE4F208130E09F5F2D
:1005700090933402C901089580913302909134021E
:10058000891B990B0895CF92DF92EF92FF920F9300
:100590001F93CF93DF937C01CB018A0120910A0244
:1005A000222389F0EB016B01C40ED51ECC15DD05AD
:1005B00069F06991D701ED91FC910190F081E02DF6
:1005C000C7010995F3CF642F0E943302C801DF9160
:1005D000CF911F910F91FF90EF90DF90CF900895F2
:1005E000CF93DF931F92CDB7DEB7698320910A02C4
:1005F0002223F9F020913102203258F021E030E03E
:10060000FC013383228390E080E00F90DF91CF9153
:10061000089580913202E82FF0E0E55FFD4F998167
:1006200090838F5F809332028093310281E090E06B
:10063000ECCF61E0CE0101960E943302F7CFCF925A
:10064000DF92EF92FF920F931F93CF93DF93FC0102
:10065000C48121E020930A02C0932B02109232023F
:10066000109231028485682B83E492E00E94F002AC
:10067000D0913102D13208F092C00E94AB016B01DF
:100680007C0180910402811165C082E080930402A4
:1006900081E0809303028FEF8093020210920102A7
:1006A000D0930002ABE0B2E0E0EEF1E080E0D813DE
:1006B00085C01092DF018091DF01CC0FC82BC09361
:1006C000DF018091DE01813009F07CC01092DE01F3
:1006D0000E94AB016B017C018091DF018093BB0024
:1006E0008091060290910702A0910802B091090240
:1006F000892B8A2B8B2B99F00E94AB01009106026B
:100700001091070220910802309109026C197D09AD
:100710008E099F090617170728073907E0F180910E
:10072000BC0083FDD9CF85EC8093BC000E94AB0157
:100730006B017C0180910402823009F445C08091F4
:1007400002028F3F61F180910202803241F180917B
:10075000020225C08091060290910702A091080232
:10076000B0910902892B8A2B8B2B09F48ACF0E9426
:10077000AB0100910602109107022091080230910E
:1007800009026C197D098E099F09061717072807AA
:10079000390708F076CF809105020E947802109206
:1007A00032021092310210920A02DF91CF911F9112
:1007B0000F91FF90EF90DF90CF9008959D919193CE
:1007C0008F5F75CF85EEB0CF8091060290910702C2
:1007D000A0910802B0910902892B8A2B8B2B09F476
:1007E000A9CF0E94AB01009106021091070220914F
:1007F0000802309109026C197D098E099F090617BC
:1008000017072807390708F095CFC5CF90E080E09B
:100810000895CF93C82F0E94CA00892B19F080E059
:10082000CF91089569E170E080E090E00E94D001EE
:100830008C2F0E94CA00892B91F78C2F0E94CA002E
:10084000892B39F465E070E080E090E00E94D001EF
:10085000F4CF69E170E080E090E00E94D00181E097
:10086000DFCFFC0101900020E9F73197AF01481B71
:10087000590BBC0187E792E00C9405020F931F937C
:10088000CF938C01C62F0E941F036C2F6460C80198
:100890000E941F036C2F6B7FC8010E941F0383EC13
:1008A00090E00197F1F7CF911F910F9108950F9369
:1008B0001F93CF93DF938C01D62FC42F607F642BBF
:1008C0000E943E0480E1D89FB00111246C2BC80126
:1008D000DF91CF911F910F910C943E04CF93DF9342
:1008E000CDB7DEB728970FB6F894DEBF0FBECDBFE9
:1008F00098E0E0E0F1E0DE01119601900D929A950A
:10090000E1F790917F02961708F46FEF262F30E001
:10091000220F331F41E050E04C0F5D1F240F351FA5
:10092000F9016081680F606840E087E792E02896EF
:100930000FB6F894DEBF0FBECDBFDF91CF910C9400
:10094000570440E061E087E792E00E9457048BE3A0
:100950009FE10197F1F780918002882321F060E008
:1009600080E00C946E04089541E00E94570481E0F9
:1009700090E0089585ED8093BC00809106029091EF
:100980000702A0910802B09109020796A11DB11DAE
:1009900023E0B695A795979587952A95D1F720914D
:1009A000BC0024FD03C01092040208954091060289
:1009B000509107026091080270910902452B462B65
:1009C000472B69F30097A105B10541F02AE22A956A
:1009D000F1F700C00197A109B109E1CF80910502AB
:1009E0000C947802EF92FF920F931F93CF93DF93B3
:1009F000CDB7DEB729970FB6F894DEBF0FBECDBFD7
:100A0000F42EE22E2CE330E040E050E00E94890A10
:100A10009F938F937F936F935F934F933F932F9306
:100A200086E291E09F938F931F9289E08F938E01CE
:100A30000F5F1F4F1F930F930E94CC0A0FB6F894BD
:100A4000DEBF0FBECDBF8981803211F480E3898380
:100A50006E2D8F2D0E946E04C8010E9431042996CC
:100A60000FB6F894DEBF0FBECDBFDF91CF911F91BF
:100A70000F91FF90EF900895109239020E94A10407
:100A800060E080E00E946E0481E391E00E94310406
:100A90006091350270913602809137029091380250
:100AA00020E046E00E94F20461E080E00E946E04D3
:100AB00087E391E00C9431048091390281110AC0DE
:100AC00010923502109236021092370210923802BC
:100AD0000C943C05E09174028E2F90E0FC01EE0F27
:100AE000FF1FE80FF91FE15BFD4F80818F7B808343
:100AF0000E94A10460E080E00E946E0483E491E023
:100B00000E9431040E94520184EA96E00E948C0007
:100B100060ED77E080E090E00E94D001E091740207
:100B20008E2F90E0FC01EE0FFF1FE80FF91FE15B35
:100B3000FD4F80818F7B8083CBCF4F925F926F92EE
:100B40007F928F929F92AF92BF92CF92DF92EF925D
:100B5000FF925A012FB7F894C0903B02D0903C020C
:100B6000E0903D02F0903E022FBFC60ED71EE81E59
:100B7000F91E0E94A10460E080E00E946E04C5019D
:100B80000E94310461E080E00E946E0480E591E003
:100B90000E94310444244A94542C32012FB7F89413
:100BA00080913B0290913C02A0913D02B0913E02A7
:100BB0002FBFA7019601281B390B4A0B5B0BDA01EB
:100BC000C901181619061A061B060CF04AC084E063
:100BD0000E94CA00892B81F40E945C0581E0FF908D
:100BE000EF90DF90CF90BF90AF909F908F907F90CD
:100BF0006F905F904F9008952FB7F89480913B02CB
:100C000090913C02A0913D02B0913E022FBF27EE91
:100C100033E040E050E0281B390B4A0B5B0BCA0164
:100C2000B9016C0D7D1D8E1D9F1D28EE33E040E047
:100C300050E00E94890A49015A01481459046A0483
:100C40007B0431F021E047E0C501B4010E94F204C9
:100C500064E170E080E090E00E94D0012401350161
:100C60009DCF21E047E060E070E0CB010E94F204FC
:100C700080E0B5CF1F920F920FB60F9211242F93E1
:100C80003F938F939F93AF93BF9380913B0290913B
:100C90003C02A0913D02B0913E0230913A0223E025
:100CA000230F2D3758F50196A11DB11D20933A024F
:100CB00080933B0290933C02A0933D02B0933E028E
:100CC00080913F0290914002A0914102B091420276
:100CD0000196A11DB11D80933F0290934002A09305
:100CE0004102B0934202BF91AF919F918F913F918A
:100CF0002F910F900FBE0F901F90189526E8230F8D
:100D00000296A11DB11DD2CF1F920F920FB60F9266
:100D100011242F933F934F935F936F937F938F9300
:100D20009F93AF93BF93CF93DF93EF93FF93809104
:100D30002C02C0917302D0E087FF24C0109285007E
:100D40001092840080912C028F5F80932C028091FE
:100D50002C02082E000C990B8C179D0724F480910F
:100D60002C028C30C4F1809184009091850004960F
:100D700080349C4908F47AC0809184009091850069
:100D8000049676C080912C02082E000C990B8C17CB
:100D90009D07C4F6E0912C028E2FEE0F990BFC01FB
:100DA000EE0FFF1FE80FF91FE15BFD4F808186FF0B
:100DB000C9CFE0912C028E2FEE0F990BFC01EE0FA4
:100DC000FF1FE80FF91FE15BFD4F808160E08F732B
:100DD0000E94F300B7CF2091840030918500E0910C
:100DE0002C028E2FEE0F990BFC01EE0FFF1FE80F68
:100DF000F91FE15BFD4F81819281820F931F9093D8
:100E0000890080938800E0912C028E2FEE0F990BC1
:100E1000FC01EE0FFF1FE80FF91FE15BFD4F808122
:100E200086FF11C0E0912C028E2FEE0F990BFC0172
:100E3000EE0FFF1FE80FF91FE15BFD4F808161E0BE
:100E40008F730E94F300FF91EF91DF91CF91BF91DB
:100E5000AF919F918F917F916F915F914F913F9152
:100E60002F910F900FBE0F901F90189580E49CE972
:100E700090938900809388008FEF80932C02E3CFBA
:100E80001F920F920FB60F9211242F933F934F93FF
:100E90005F936F937F938F939F93AF93BF93EF93E2
:100EA000FF938091B900887F803609F44AC0F0F53D
:100EB000883209F4A7C018F5803109F49BC0B8F452
:100EC000882309F4F9C0883009F494C0FF91EF91A8
:100ED000BF91AF919F918F917F916F915F914F9152
:100EE0003F912F910F900FBE0F901F901895883152
:100EF00009F488C0803251F78093020214C0803414
:100F000009F49DC040F48033B9F38833F9F6809337
:100F1000020285ECB0C0803509F485C0883509F43B
:100F200096C0883499F60E94BA04D0CF883909F463
:100F30008CC038F5883729F050F4883611F08037A6
:100F400029F683E0809304021092DD0157C08838AF
:100F500009F47BC0803919F0803809F0B7CF80914F
:100F6000DD01803208F071C0E091DD0181E08E0F7B
:100F70008093DD018091BB00F0E0E354FE4F80835D
:100F80003DC0803B39F0E0F4803A09F479C0883AFA
:100F900009F09CCF84E0809304021092BC0110926F
:100FA000BB01E0912F02F091300209958091BB01C5
:100FB00081110FC081E08093BB0110929B0109C099
:100FC000803C09F4A6CF883C09F4A3CF883B09F004
:100FD0007DCFE091BC0181E08E0F8093BC01F0E0F9
:100FE000E556FE4F80818093BB009091BC018091BB
:100FF000BB0129C08091DF018093BB0085EC809309
:10100000BC0064CF9091010280910002981758F5BE
:10101000E091010281E08E0F80930102F0E0E05246
:10102000FE4F8081E9CFE091010281E08E0F809335
:1010300001028091BB00F0E0E052FE4F808390916E
:101040000102809100029817C8F285E8D8CFE0919C
:10105000010281E08E0F809301028091BB00F0E0DD
:10106000E052FE4F80838091030281115CCF81E0CA
:101070008093DE0184EA8093BC001092040226CFA4
:1010800085EC8093BC00109204028091DD018032D7
:1010900030F4E091DD01F0E0E354FE4F1082609106
:1010A000DD0170E0E0912D02F0912E028DEB91E0D8
:1010B00009951092DD010ACF1092020234CF1092EE
:1010C00046021092450288EE93E0A0E0B0E08093E3
:1010D000470290934802A0934902B0934A028CE0E1
:1010E00091E0909344028093430210927A0210920E
:1010F00079028EE191E090937802809377021092CA
:10110000800287E280937B0280E18093810282E00B
:101110008093820210928302809173028C3098F443
:1011200091E0980F909373028093740290E0FC0119
:10113000EE0FFF1FE80FF91FE15BFD4F88EB9BE00F
:101140009283818308958FEF809374020895789439
:1011500084B5826084BD84B5816084BD85B58260BC
:1011600085BD85B5816085BD80916E00816080936D
:101170006E001092810080918100826080938100D6
:1011800080918100816080938100809180008160E6
:10119000809380008091B10084608093B100809141
:1011A000B00081608093B00080917A008460809369
:1011B0007A0080917A00826080937A0080917A0030
:1011C000816080937A0080917A00806880937A00B1
:1011D0001092C10062E082E00E94210162E083E09F
:1011E0000E94210162E084E00E94210162E085E02A
:1011F0000E942101109234021092330210923202A6
:10120000109231020E945A0283E092E090933002E1
:1012100080932F0284E092E090932E0280932D021F
:1012200010927C0280918202823018F098E09093B4
:101230007C0280937F0262E370E080E090E00E9495
:10124000D0016091830287E792E00E941F0368EE5D
:1012500073E080E090E00E94D00160E387E792E0D5
:101260000E943E04CBE4D6E4CE010197F1F760E39F
:1012700087E792E00E943E042197F1F760E387E759
:1012800092E00E943E0483E592E00197F1F760E26C
:1012900087E792E00E943E0460917C02606240E039
:1012A00087E792E00E94570484E080937D0240E04B
:1012B0006CE087E792E00E9457040E94A10482E05C
:1012C00080937E0240E066E087E792E00E94570448
:1012D00040E062E087E792E00E9457048BE39FE1E1
:1012E0000197F1F788E08093830260E087E792E05E
:1012F0000E941F030E943C050E945201E09174026B
:101300008E2F90E0FC01EE0FFF1FE80FF91FE15B4D
:10131000FD4F80818F7B8083C0E0D0E05CE3C52EF1
:10132000D12CE12CF12C11E080913902811143C0C4
:1013300083E090E00E9409048823E1F08091350267
:1013400090913602A0913702B09138028C3391050A
:10135000A105B10508F040C0C0923502D092360216
:10136000E0923702F09238020E943C0580913902E7
:10137000811121C085E090E00E9409048823D9F002
:101380008091350290913602A0913702B0913802D7
:101390000196A11DB11D81322CE19207A105B10575
:1013A00068F58093350290933602A0933702B0938C
:1013B00038020E943C0584E00E94CA00892B79F51E
:1013C00084E00E94CA00892B11F565E070E080E09E
:1013D00090E00E94D001F4CFCC96A11DB11D809366
:1013E000350290933602A0933702B09338028132CF
:1013F0009C41A105B10508F0AFCFB6CF10923502E0
:10140000109236021092370210923802D2CF69E160
:1014100070E080E090E00E94D0010E945C05809125
:101420003902811154C082E090E00E9409048823AF
:1014300009F44DC0109339020E94520184E195E0F5
:101440000E948C0048E551E060ED77E080E090E09C
:101450000E949D0581114CC0E09174028E2F90E096
:10146000FC01EE0FFF1FE80FF91FE15BFD4F8081CC
:101470008F7B808320913502309136024091370274
:1014800050913802211531054105510539F50E9469
:10149000520184EA96E00E948C0046E651E060ED3D
:1014A00077E080E090E00E949D05811121C0E091ED
:1014B00074028E2F90E0FC01EE0FFF1FE80FF91F62
:1014C000E15BFD4F80818F7B80830E943C0565E05E
:1014D00070E080E090E00E94D0010AC0A8EEB3E086
:1014E0000E947E0A42E751E00E949D05882379F21E
:1014F000209709F419CF0E94000016CF0E94AB0A72
:10150000A59F900DB49F900DA49F800D911D112457
:101510000895A1E21A2EAA1BBB1BFD010DC0AA1F34
:10152000BB1FEE1FFF1FA217B307E407F50720F04C
:10153000A21BB30BE40BF50B661F771F881F991FC7
:101540001A9469F760957095809590959B01AC0110
:10155000BD01CF010895A29FB001B39FC001A39F19
:10156000700D811D1124911DB29F700D811D1124DC
:10157000911D0895991B79E004C0991F961708F0F2
:10158000961B881F7A95C9F780950895EE0FFF1F67
:101590000590F491E02D0994AEE0B0E0E2EDFAE0C0
:1015A0000C94880D0D891E898F89988D26E02C83D7
:1015B0001A83098397FF02C080E090E801979E8319
:1015C0008D83AE01455E5F4F698D7A8DCE010196A8
:1015D0000E94FC0A4D815E8157FD0AC02F8138852B
:1015E000421753070CF49A01020F131FF8011082DF
:1015F0002E96E4E00C94A40DABE0B0E0E2E0FBE05A
:101600000C947A0D7C013B018A01FC011782168241
:10161000838181FFC8C1CE0101965C01F7019381EE
:10162000F30193FD859193FF81913F01882309F494
:1016300053C1853239F493FD859193FF81913F0128
:10164000853229F4B70190E00E94EC0CE7CF912C91
:10165000212C312CFFE1F31538F08B3211F190F48D
:10166000803209F1833229F137FC3CC020ED280F8C
:101670002A3050F536FE20C08AE0989E200D1124B5
:10168000922E06C08D3291F0803371F7689430F855
:10169000F30193FD859193FF81913F018111DACF91
:1016A00021C0689431F8689432F8F2CF689433F826
:1016B000EFCF689434F8ECCFEAE02E9E200D112491
:1016C000222E689435F8E4CF8E3229F436FC04C11A
:1016D000689436F8DDCF8C3619F4689437F8D8CF93
:1016E0008836B1F2982F9F7D95549330E0F0833681
:1016F000A1F18337C1F1833509F063C02801F2E01D
:101700004F0E511CF801C080D180692D70E036FC6D
:1017100002C06FEF7FEFC6010E94D60C4C016894A7
:1017200037F882010AC00C5F1F4FFFE3F98388245A
:101730008394912C6501E89437F833FE2DC0522C28
:101740008114910471F5552009F468CFB70180E246
:1017500090E00E94EC0C5A94F6CFF80180818983C6
:101760000E5F1F4FE4CF2801F2E04F0E511CF8012D
:10177000C080D180692D70E036FC02C06FEF7FEF32
:10178000C6010E94E10C4C018201D5CFB70180E275
:1017900090E00E94EC0C2A942814190409F0B0F788
:1017A000CECFF60137FC859137FE81916F01B701ED
:1017B00090E00E94EC0C51105A94F1E08F1A9108BD
:1017C000BFCF843619F0893609F077C0F80137FEAB
:1017D0006BC060817181828193810C5F1F4FF32DFB
:1017E000FF763F2E97FF09C0909580957095619583
:1017F0007F4F8F4F9F4F689437F82AE030E0A50164
:101800000E941C0DC82ECA188C2C432C36FE0CC00E
:10181000E89440F8C91440F434FE05C032FC03C01B
:10182000F32DFE7E4F2E892C44FE95C0FE01EC0D5B
:10183000F11D8081803309F087C0242D297E422E3E
:10184000842D8870582E43FC95C040FE8FC09C2C80
:10185000821418F42C0C922C981844FE91C0B701F5
:1018600080E390E00E94EC0C42FE09C088E790E023
:1018700041FE02C088E590E0B7010E94EC0CC9145B
:1018800008F48AC0CA94D12C9FEFC91AD90ACA0C8D
:10189000DB1CF60182916F01B70190E00E94EC0C15
:1018A000AC14BD04B1F74FCF60817181072E000CDD
:1018B000880B990B0E5F1F4F92CFD32CE894D4F86E
:1018C0002AE030E0853739F1232D297FD22E8F365B
:1018D00001F148F48835A9F0F701868197812B96AC
:1018E000E2E10C94960D803749F08837A9F7D4FED1
:1018F00002C06894D2F820E130E00DC06894D4F8BA
:10190000F6CF34FE03C0822F8660D82E20E132E06D
:1019100002C028E030E0F801D7FE0FC0608171817D
:10192000828193810C5F1F4FA5010E941C0DC82E60
:10193000CA183D2CE89437F867CF6081718190E038
:1019400080E00E5F1F4FF0CF42FC02C0839478CF3F
:101950008394839475CF842D867809F471CFF6CF64
:10196000B70180E290E00E94EC0C83948214C0F3F3
:10197000512C73CF522C5818821408F46ECFF8CF24
:10198000842D867809F47BCF8BE241FE80E247FC10
:101990008DE2B70190E071CFB70180E390E00E9443
:1019A000EC0C9A946CCF8FEF9FEF99CFFC010590D0
:1019B000615070400110D8F7809590958E0F9F1F51
:1019C0000895FC016150704001900110D8F7809596
:1019D00090958E0F9F1F08950F931F93CF93DF93C2
:1019E000182F092FEB018B8181FD09C01FEF0FEF2D
:1019F000812F902FDF91CF911F910F91089582FF3A
:101A000014C02E813F818C819D81281739073CF4B9
:101A1000E881F981CF0101969983888310838E81B3
:101A20009F8101969F838E83E3CFE885F985812F7F
:101A30000995892BA1F3DACFFA01AA27283051F1B1
:101A4000203181F1E8946F936E7F6E5F7F4F8F4FEF
:101A50009F4FAF4FB1E03ED0B4E03CD0670F781F4E
:101A6000891F9A1FA11D680F791F8A1F911DA11D33
:101A70006A0F711D811D911DA11D20D009F468946C
:101A80003F912AE0269F11243019305D3193DEF614
:101A9000CF010895462F4770405D4193B3E00FD0CA
:101AA000C9F7F6CF462F4F70405D4A3318F0495DB5
:101AB00031FD4052419302D0A9F7EACFB4E0A69598
:101AC0009795879577956795BA95C9F700976105BA
:101AD000710508959B01AC010A2E06945795479510
:101AE00037952795BA95C9F7620F731F841F951F05
:101AF000A01D08952F923F924F925F926F927F9216
:101B00008F929F92AF92BF92CF92DF92EF92FF920D
:101B10000F931F93CF93DF93CDB7DEB7CA1BDB0BB9
:101B20000FB6F894DEBF0FBECDBF09942A8839885E
:101B300048885F846E847D848C849B84AA84B98465
:101B4000C884DF80EE80FD800C811B81AA81B98171
:101B5000CE0FD11D0FB6F894DEBF0FBECDBFED0185
:061B60000895F894FFCF88
:101B6600000040001400540000000000F002C30210
:101B760006049902BC02A9029A0200000000B404FD
:101B860005020604320225326C753A2530326C7530
:101B960000486F6C643A0050726573732053544169
:101BA60052540052657475726E696E672E2E2E0041
:101BB60052656D61696E200052756E6E696E673A88
:101BC60020446F776E0052756E6E696E673A2055C7
:0A1BD6007000486F6C642E2E2E0084
:00000001FF
